:100000000C9446050C946E050C946E050C946E05CC
:100010000C946E050C946E050C946E050C946E0594
:100020000C946E050C946E050C946E050C946E0584
:100030000C946E050C946E050C946E050C946E0574
:100040000C94A2150C946E050C946E050C946E0520
:100050000C946E050C946E050C946E050C946E0554
:100060000C94EC150C946E0500000000003E5B4FF4
:100070005B3E3E6B4F6B3E1C3E7C3E1C183C7E3C08
:10008000181C577D571C1C5E7F5E1C00183C180016
:10009000FFE7C3E7FF0018241800FFE7DBE7FF30A6
:1000A000483A060E2629792926407F050507407F14
:1000B00005253F5A3CE73C5A7F3E1C1C08081C1C87
:1000C0003E7F14227F22145F5F005F5F06097F017D
:1000D0007F006689956A606060606094A2FFA29468
:1000E00008047E040810207E201008082A1C080836
:1000F0001C2A08081E101010100C1E0C1E0C303884
:100100003E3830060E3E0E06000000000000005F84
:1001100000000007000700147F147F14242A7F2AA0
:100120001223130864623649562050000807030062
:10013000001C2241000041221C002A1C7F1C2A08AE
:10014000083E080800807030000808080808000011
:1001500060600020100804023E5149453E00427F85
:10016000400072494949462141494D331814127FD4
:100170001027454545393C4A494931412111090774
:100180003649494936464949291E000014000000F5
:1001900040340000000814224114141414140041C7
:1001A00022140802015909063E415D594E7C121184
:1001B000127C7F494949363E414141227F414141BC
:1001C0003E7F494949417F090909013E4141517337
:1001D0007F0808087F00417F41002040413F017FA8
:1001E000081422417F404040407F021C027F7F0470
:1001F00008107F3E4141413E7F090909063E4151B9
:10020000215E7F09192946264949493203017F01A8
:10021000033F4040403F1F2040201F3F4038403FA9
:10022000631408146303047804036159494D4300BF
:100230007F4141410204081020004141417F0402F6
:10024000010204404040404000030708002054548D
:1002500078407F284444383844444428384444286B
:100260007F385454541800087E090218A4A49C78BE
:100270007F0804047800447D40002040403D007F1A
:100280001028440000417F40007C047804787C08FA
:100290000404783844444438FC18242418182424CE
:1002A00018FC7C08040408485454542404043F44B3
:1002B000243C4040207C1C2040201C3C4030403CE2
:1002C00044281028444C9090907C4464544C440042
:1002D00008364100000077000000413608000201A6
:1002E0000204023C2623263C1EA1A161123A404092
:1002F000207A38545455592155557941225454780F
:1003000042215554784020545579400C1E527212A7
:100310003955555559395454545939555454580030
:1003200000457C410002457D420001457C407D1234
:1003300011127DF0282528F07C5455450020545496
:100340007C547C0A097F4932494949323A44444441
:100350003A324A4848303A4141217A3A424020787C
:10036000009DA0A07D3D4242423D3D4040403D3C7D
:1003700024FF2424487E4943662B2FFC2F2BFF09A2
:1003800029F620C0887E0903205454794100004496
:100390007D413048484A32384040227A007A0A0A81
:1003A000727D0D19317D2629292F282629292926F4
:1003B00030484D4020380808080808080808382F39
:1003C00010C8ACBA2F102834FA00007B00000814C3
:1003D0002A142222142A14085500550055AA55AA99
:1003E00055AAFF55FF55FF000000FF00101010FF39
:1003F00000141414FF001010FF00FF1010F010F094
:10040000141414FC001414F700FF0000FF00FF1484
:1004100014F404FC141417101F10101F101F1414D0
:10042000141F00101010F0000000001F101010101A
:100430001F10101010F010000000FF10101010100E
:1004400010101010FF10000000FF140000FF00FF4C
:1004500000001F10170000FC04F4141417101714E8
:1004600014F404F40000FF00F7141414141414140A
:10047000F700F7141414171410101F101F1414147D
:10048000F4141010F010F000001F101F0000001FE7
:1004900014000000FC140000F010F01010FF10FF1A
:1004A000141414FF141010101F00000000F010FFAF
:1004B000FFFFFFFFF0F0F0F0F0FFFFFF0000000093
:1004C00000FFFF0F0F0F0F0F3844443844FC4A4A17
:1004D0004A347E02020606027E027E0263554941CC
:1004E000633844443C04407E201E2006027E020203
:1004F00099A5E7A5991C2A492A1C4C7201724C3017
:100500004A4D4D303048784830BC625A463D3E49ED
:100510004949007E0101017E2A2A2A2A2A44445F91
:10052000444440514A444040444A51400000FF0185
:1005300003E080FF000008086B6B08361236243693
:10054000060F090F060000181800000010100030F8
:1005500040FF0101001F01011E00191D1712003C80
:100560003C3C3C0000000000000103070F1F3F7FE0
:100570000080C0E0F0F8FCFEDB40A4A62EAF200017
:10058000A1C8D300408DAED580A800006000000057
:100590000000000000000000000000E0000000007B
:1005A00000000000000000000001E000000000006A
:1005B000000000000000000001F00000000000004A
:1005C0000000000000000003F00000000000000038
:1005D00000000000000007F0000000000000000024
:1005E000000000000007F80000000000000000000C
:1005F000000000000FF800000003C0007E000001B2
:10060000E0007F0FF800000003C000FE000001E0E2
:1006100000FFEFF800000003C000FE000001E00052
:10062000FFFFF800000003C000F00000000F007F93
:10063000FE7FC0000003C000F00000000F003FFE7E
:100640007FF83FF1FBCFFCFEF3BC3DEFE01FFE7FE8
:10065000FF7FFBFFDFFEFEFFBC3DEFE01FC6FFFF9D
:100660007FFBFFDFFEFEFFBC3DEFE00FE3C7FE7840
:100670007BC3DE1EF0FFBC3DEF0007FF87FC787BED
:10068000C3DE1EF0F83C3DEF0001FFFFF0007BC32E
:10069000C01EF0F03C3DEF0001F37FE03FFBC3CF15
:1006A000FEF0F03C3DEF0003E33F807FFBC3DFFE45
:1006B000F0F03C3DEF0007E73C00787BC3DE1EF026
:1006C000F03C3DEF0007FFBE00787BC3DE1EF0F07C
:1006D0003C3DEF0007FFFE00787BC3DE1EF0F03CE0
:1006E0003DEF000FFFFE007FFBFFDFFEF0F03FFD60
:1006F000EFE00FFFFF007FFBFFDFFEF0F03FFDEFBD
:10070000E00FF9FF003E79F9CF9EF0F01F3DE7E0E2
:100710001FF1FF0000000000000000000000001FAB
:1007200080FF007FFFFFFFFFFFFFFFFFFFE01C00D8
:100730007F007FFFFFFFFEB46D888D18E000001F73
:10074000007FFFFFFFFE95AD7DB577E000000F0055
:100750007FFFFFFFFEA5AD9D8D19E0000006007F25
:10076000FFFFFFFEB5ADEDB57EE00000000000012B
:100770008000000000000000000003800000000076
:10078000000000000007C0000000000000000000A2
:1007900007C00000000000000000000FC0000000C3
:1007A0000000000000001FE000000000000000004A
:1007B000001FE00000000000000000003FE000001B
:1007C000000000000000003FF000000000000000FA
:1007D00000007FF0000000000000001FF87FF00024
:1007E0000000000000003FFE7FF00000000000005D
:1007F000003FFF7FF0000000000000001FFFFBE053
:10080000000000000000000FFFF9FFC00000000022
:1008100000000FFFF9FFF800000000000007FFF1E3
:10082000FFFF00000000000003FC73FFFF800000DA
:1008300000000001FE3FFFFF80000000000000FFFD
:100840001E0FFF000000000000007FFE1FFC0000E4
:1008500000000000003FFFFFF80000000000000063
:100860000FDFFFE0000000000000001F19FFC000C4
:100870000000000000003F3CFF00000000000000FE
:10088000007E7CF800000000000000007FFE7C007D
:1008900000000000000000FFFFFC0000000000005E
:1008A0000000FFFFFE0000000000000000FFFFFE50
:1008B0000000000000000001FFEFFE00000000004B
:1008C000000001FFCFFE0000000000000003FF0752
:1008D000FE0000000000000003FC07FE0000000016
:1008E00000000003F003FE00000000000000018093
:1008F00000FE000000000000000000007E0000007C
:10090000000000000000003E0000000000000000A9
:1009100000000C000000000000078000FC00000345
:10092000C0000000078001FC000003C000000007B9
:100930008001FC000003C0000000078001E000000F
:10094000001E000000078001E00000001E007FE3A1
:10095000F79FF9FDE7787BDFC0FFF7FFBFFDFDFFE5
:10096000787BDFC0FFF7FFBFFDFDFF787BDFC0F0C6
:10097000F787BC3DE1FF787BDE00F0F787BC3DE107
:10098000F0787BDE0000F787803DE1E0787BDE00D9
:100990007FF7879FFDE1E0787BDE00FFF787BFFDF3
:1009A000E1E0787BDE00F0F787BC3DE1E0787BDEBC
:1009B00000F0F787BC3DE1E0787BDE00F0F787BC14
:1009C0003DE1E0787BDE00FFF7FFBFFDE1E07FFB6C
:1009D000DFC0FFF7FFBFFDE1E07FFBDFC07CF3F38B
:1009E0009F3DE1E03E7BCFC0000000000000000022
:1009F000000000FFFFFFFFFFFFFFFFFFFFC0FFFF43
:100A0000FFFFFD68DB111A31C0FFFFFFFFFD2B5A0E
:100A1000FB6AEFC0FFFFFFFFFD4B5B3B1A33C0FFDC
:100A2000FFFFFFFD6B5BDB6AFDC0000000002400E0
:100A300027002A0000000000250028002B000000ED
:100A40000000230026002900040404040404040414
:100A50000202020202020303030303030102040869
:100A60001020408001020408102001020408102018
:100A7000000000080002010000030407000000005D
:100A8000000000002200FF210B17151E11241FBEBD
:100A9000CFEFD8E0DEBFCDBF23E0A2E1B2E001C0DE
:100AA0001D92A63AB207E1F712E0A0E0B1E0E6EB52
:100AB000F5E402C005900D92A231B107D9F715E017
:100AC000C5E4D5E004C02197FE010E94C120C434D2
:100AD000D107C9F70E94ED170C94CE220C940000A8
:100AE000089596E0899FD0011124A951BD4F909699
:100AF0007C936E935F9791E091969C939197E09190
:100B00005403F091550390915303992339F0309792
:100B100051F0811108C0809103030994309719F0B6
:100B20005C968C91FACF0895833081F028F481305F
:100B300099F08230A9F008958730A9F08830C9F083
:100B40008430B1F4809180008F7D03C0809180005B
:100B50008F7780938000089584B58F7784BD089542
:100B600084B58F7DFBCF8091B0008F778093B000EC
:100B700008958091B0008F7DF9CFCF93DF93282F18
:100B800030E0F901E059F54F8491F901E45AF54F4D
:100B9000D491F901E85BF54FC491CC23A1F0811108
:100BA0000E949405EC2FF0E0EE0FFF1FE25CF54F82
:100BB000A591B491EC91ED2381E090E009F480E0FF
:100BC000DF91CF91089580E090E0FACF1F93CF930B
:100BD000DF93282F30E0F901E059F54F8491F901B6
:100BE000E45AF54FD491F901E85BF54FC491CC2359
:100BF000A9F0162F81110E949405EC2FF0E0EE0F62
:100C0000FF1FEC5CF54FA591B4918FB7F894EC9170
:100C1000111108C0D095DE23DC938FBFDF91CF91F7
:100C20001F910895DE2BF8CFCF93DF9390E0FC0166
:100C3000E45AF54F2491885B954FFC0184918823F9
:100C4000C9F090E0880F991FFC01E65DF54FA59172
:100C5000B491FC01EC5CF54FC591D49161110DC0CC
:100C60009FB7F8948C91209582238C9388812823B8
:100C700028839FBFDF91CF910895623051F49FB7D1
:100C8000F8943C91822F809583238C93E8812E2BBE
:100C9000EFCF8FB7F894EC912E2B2C938FBFEACF28
:100CA0008E50806480937C0080917A008064809371
:100CB0007A0080917A0086FDFCCF80917800909137
:100CC000790008953FB7F8948091D3029091D402AF
:100CD000A091D502B091D60226B5A89B05C02F3FA2
:100CE00019F00196A11DB11D3FBFBA2FA92F982F52
:100CF0008827BC01CD01620F711D811D911D42E04D
:100D0000660F771F881F991F4A95D1F708958F9214
:100D10009F92AF92BF92CF92DF92EF92FF924B01E0
:100D20005C010E9462066B017C010E9462066C19E4
:100D30007D098E099F09683E734081059105A8F3DE
:100D400021E0821A9108A108B10888EEC80E83E05C
:100D5000D81EE11CF11C81149104A104B10429F7EF
:100D6000FF90EF90DF90CF90BF90AF909F908F90CB
:100D700008952FB7F8946091CF027091D0028091BE
:100D8000D1029091D2022FBF08950F931F93CF935A
:100D9000DF93C82FD62F86E0C89FF0011124E951B8
:100DA000FD4F11A2878D90A181309105F1F058F08F
:100DB00082309105F1F1039709F440C0DF91CF91A2
:100DC0001F910F9108956623C9F361E070E08C2FA5
:100DD0000E9471050E94B90660933F03709340031F
:100DE0008093410390934203E9CF0E94B90600919A
:100DF0003F03109140032091410330914203AB0126
:100E0000BC01401B510B620B730B809151039091FD
:100E10005203B0E0A0E084179507A607B70748F48F
:100E200062E070E08C2FDF91CF911F910F910C94B5
:100E3000710563E070E0D111C1CFF4CF70E060E0E4
:100E4000F1CF862F642F0C941406862F642F0C94F8
:100E5000E605862F0C94BD0508950895AF92BF92C4
:100E6000CF92DF92EF92FF920F931F93CF93DF9376
:100E70006C017B018B01040F151FEB015E01AE18A5
:100E8000BF08C017D10759F06991D601ED91FC91C7
:100E90000190F081E02DC6010995892B79F7C501F4
:100EA000DF91CF911F910F91FF90EF90DF90CF9046
:100EB000BF90AF900895EF92FF920F931F93CF933F
:100EC000DF93EC01EC80FD806E157F050CF070C0A7
:100ED00057FF04C0240F351F50E040E08E819F81F2
:100EE000FA01E20FF31F8E179F071CF49C01241BCD
:100EF000350B121613060CF05BC0922F842F8695CB
:100F0000869586958E9DD0018F9DB00D11246A0F18
:100F10007B1FAF8DB8A1A60FB71F477049F188E0BE
:100F2000841B482F682F70E0FB01E059FA4FE491D1
:100F3000281708F063C0621B71092FEF30E002C070
:100F4000359527956A95E2F7E2230130110539F0CE
:100F5000B0F10230110561F58C91E82702C08C9147
:100F6000E82BEC93941720F12C813D81A20FB31F45
:100F7000E92FE41BE83078F00230110521F58E2FBF
:100F80009C9190959C932C813D81A20FB31F88501A
:100F90008830B0F7E770EE2359F0F0E0E859FA4FE7
:100FA000E49101301105F9F010F10230110519F149
:100FB000DF91CF911F910F91FF90EF900895E095F1
:100FC0008C91E823CECF81E00115110509F480E072
:100FD00081959E2F8C932C813D81A20FB31F985039
:100FE0009830C0F7D7CF8C91E82BEC93E1CFE09508
:100FF0008C91E823FACF8C91E827F7CF01301105C7
:1010000009F4ADCFE0F20230110509F4A5CFAE0D21
:10101000BF1DAECF0F931F93CF93DF9377FF04C015
:10102000260F371F70E060E0DC011496CD91DC9153
:10103000FB01E20FF31FCE17DF071CF49E01261BF6
:10104000370B121613064CF5FA0157FD3796A3E03D
:10105000F595E795AA95E1F7EC9FD001ED9FB00DCE
:10106000FC9FB00D11246A0F7B1FDC015F96ED9190
:10107000FC91E60FF71F4770552781E090E001C013
:10108000880F4A95EAF7482F0130110559F0A8F06A
:101090002E0F3F1F02301105E1F0DF91CF911F911C
:1010A0000F9108952E0F3F1FE217F307B1F38191BF
:1010B000DF011197842B8C93F7CF80952E0F3F1F64
:1010C000E217F30751F39191DF01119798239C9355
:1010D000F7CFE217F30709F38191DF011197842716
:1010E0008C93F7CF0F931F93FA01DC0156964C9126
:1010F00056974230E9F04330A1F1413061F5149642
:101100004D915C91DA01AE1BBF0BFD01E21BF30BAD
:1011100077FD0BC0DC0116964D915C916417750745
:1011200024F4AB01BF010E940A081F910F9108959A
:1011300014964D915C91DA01A61BB70BBD0161506D
:101140007109DC0116964D915C91DA01AE1BBF0B63
:10115000FD01E21BF30B77FDE8CFAF010E945B07B7
:10116000E4CF16964D915C91DA01A61BB70BBD0139
:1011700061507109CDCF0F931F93FA01DC01569690
:101180004C9156974230A9F0433091F1413019F516
:1011900014964D915C91DA01AE1BBF0BFD013197A6
:1011A000F7FD04C0AB01BF010E945B071F910F91C7
:1011B000089514964D915C91DA01A61BB70BBD0101
:1011C000DC0116964D915C91DA01AE1BBF0BFD015F
:1011D0003197621B730BF7FDE9CFDC0116964D9139
:1011E0005C91E417F50714F7AF010E940A08DECFFF
:1011F00016964D915C91DA01A61BB70BBD01621BDF
:10120000730BCECFFC0177FD64C080859185681794
:1012100079070CF05EC057FD5CC082859385481746
:1012200059070CF056C086898230B1F0833029F11D
:10123000813041F484819581841B950BAB01BC0105
:10124000615071092130310509F108F443C02230A1
:10125000310509F463C0089584819581DC01A61BE2
:10126000B70BBD016150710986819781DC01A41B18
:10127000B50BAD0141505109E5CF86819781861BA1
:10128000970BBA01AC0141505109DCCFCA0157FD9F
:101290000796A3E095958795AA95E1F7A481B58176
:1012A0008A9F90018B9F300D9A9F300D1124620F01
:1012B000731F078CF0A1E02DE60FF71F477055272D
:1012C00021E030E001C0220F4A95EAF78081822BAD
:1012D00080830895CA0157FD079633E09595879559
:1012E0003A95E1F7A481B5818A9F90018B9F300DDB
:1012F0009A9F300D1124620F731F078CF0A1E02D0F
:10130000E60FF71F4770552781E090E001C0880F76
:101310004A95EAF7809590818923DACFCA0157FD73
:10132000079623E0959587952A95E1F7A481B581E5
:101330008A9F90018B9F300D9A9F300D1124620F70
:10134000731F078CF0A1E02DE60FF71F477055279C
:1013500021E030E001C0220F4A95EAF78081822720
:10136000B7CF08958EBD00000DB407FEFDCF8EB53A
:1013700008958CBD9DBD08950895FC016370668B32
:101380008481958126813781613039F0633029F07D
:1013900091878087338722870895318720879387B5
:1013A000828708952F923F924F925F926F927F9221
:1013B0008F929F92AF92BF92CF92DF92EF92FF9265
:1013C0000F931F93CF93DF93CDB7DEB76A970FB616
:1013D000F894DEBF0FBECDBF9A8F898F7A83698361
:1013E0004A01D22E18870F833701BC2CDC01599695
:1013F0002D913C915A972115310509F015C1189688
:101400008D919C911997681779070CF0D7C11A969E
:101410008D919C91481759070CF0D0C14C2C512C40
:10142000B6E0CB9E600D711D11247C876B8716166C
:1014300017060CF0C3C1EA2DF0E0FA87E98793E0C4
:10144000EE0FFF1F9A95E1F7F88BEF87CF01840F1E
:10145000951F181619060CF0B1C1A98DBA8D5896B2
:101460008C91811104C0BFEABD1508F4D394A98DF5
:10147000BA8DED91FC9111970284F385E02DCD0199
:101480000995B5E0DB9EC0011124E981FA81FC8356
:10149000EB83312C212C9C0128593F4F388F2F8B07
:1014A0004A2D50E05E8B4D8BEF89F88DE20DF31DD8
:1014B00044919E828D82D12CC12C69817A81620DEA
:1014C000731D7A8B698B842F90E09C8B8B8BE98DBD
:1014D000FA8DA081B18140FF82C0F1E0BF126FC0E0
:1014E000AF126DC01C96ED91FC912F813885A4013F
:1014F0004C0D5D1D69897A89898D9A8D0995EB89D5
:10150000FC89F595E7954E2F5FEFC51AD50A6D81D9
:101510007E818D899E89680F791F7E836D8398E017
:10152000C916D10481F6AFEF2A1A3A0AEB81FC8181
:10153000E40DF51DFC83EB83F5E02F16310409F073
:10154000B3CF2F81388526153705B9F0A98DBA8D0F
:10155000ED91FC91B1E0BB1257C0AB1255C069814F
:101560007A816B5F7F4F0088F189E02D830128E04D
:1015700030E0A401898D9A8D0995A98DBA8DED91E0
:10158000FC9111970688F789E02DCD016A960FB678
:10159000F894DEBF0FBECDBFDF91CF911F910F91A9
:1015A000FF90EF90DF90CF90BF90AF909F908F9083
:1015B0007F906F905F904F903F902F9009941E9670
:1015C000ED91FC91EF80F88409851A8592014D8197
:1015D0005E816B817C81898D9A8D099590CF2F8159
:1015E00038852615370509F48ACF31E0B31207C0D4
:1015F000A31205C01C96ED91FC91930178CF1E9625
:10160000ED91FC917301E0CF6B857C8564197509C0
:101610000684F785E02D73010F8518899201A401D6
:10162000898D9A8D0995A9CFF901349694913297B5
:1016300045915491D91AB7E0DB9E400D511D1124FC
:10164000F901259134913C8B2B8BFA012590349034
:10165000FA013296749031963491398B32966490B7
:101660003196449041E04C1518F04A1508F07FC0BF
:10167000662D062C000C770B7C836B83842D042C49
:10168000000C990B9E838D83A98DBA8DED91FC91F1
:1016900011970284F385E02DCD010995512CD12CB1
:1016A000C12CEA2DF0E0FA87E9872B2D30E03C874A
:1016B0002B87A401440D511D47FC5A95588F4F8B21
:1016C00069817A81660D711D67FC7A957E876D87C9
:1016D0007989C71608F051CF2C2D30E04D815E81FD
:1016E000420F531FA985BA854A9FC0014B9F900D99
:1016F0005A9F900D1124FC01E80DF91DF88BEF871E
:10170000852D612C4F89588D420F531F5E8B4D8B59
:10171000671408F050C044244394480E877041F485
:10172000C1010196EB89FC89E20DF31DD4901C01E7
:10173000D7FE19C0A98DBA8DED91FC91662D70E090
:10174000B1E0BB1219C0AB1217C02D853E85620FE8
:10175000731F0484F585E02D2F8138854D895E89BE
:10176000898D9A8D0995DD0C6394842DD1CF1E82CD
:101770001D821C821B8288CF4B815C81640F751F88
:10178000AB85BC856A9FC0016B9F900D7A9F900DC1
:10179000112469817A81680F791F0684F785E02D0D
:1017A000EF80F88409851A859D014F855889898DB8
:1017B0009A8D0995D8CF570CC3948ACF6A960FB6E5
:1017C000F894DEBF0FBECDBFDF91CF911F910F9177
:1017D000FF90EF90DF90CF90BF90AF909F908F9051
:1017E0007F906F905F904F903F902F9008958F92D1
:1017F0009F92AF92CF92EF92FF920F931F93CF934E
:10180000DF93EC01262F898D9A8D009709F051C046
:101810006A30D1F41D861C868D8948E0849F900132
:1018200011248E859F85820F931F9F878E8781E06D
:1018300090E0DF91CF911F910F91FF90EF90CF90AB
:10184000AF909F908F9008956D3089F3CC88AD88CC
:101850008F898823C1F08C859D8536E0C39E800DDD
:10186000911D1124488559854817590764F44E8500
:101870005F851D861C8638E0A39EC0011124840F5D
:10188000951F9F878E87EA88FB88088919894E856E
:101890005F856C857D85CE010E94D2092C898C855F
:1018A0009D8546E0249F800D911D11249D878C8786
:1018B000BECF6A3069F41D861C86FC013896E4911F
:1018C0002D898E859F85E29F800D911D1124ADCFBE
:1018D0006D3009F4ACCFFC0134963491631708F4F1
:1018E000A6CF3296E491E61708F4A1CFFC01329618
:1018F00085909490462F431B342F47E0349F800CF3
:10190000911C1124F401329634913196E4913323E1
:10191000A9F1EE2399F1CC88F4013596E491AD88D4
:101920004F89442301F10E2E000CFF0BE30FF11D34
:10193000CE9EA001CF9E500D11246C857D85460F53
:10194000571F68857985641775076CF44E855F8528
:101950001D861C86FC013896E491AE9E400D511DFB
:1019600011245F874E87EA88FB88088919894E858C
:101970005F856C857D85CE010E94D209F401349685
:10198000E4912C898C859D85E29F800D911D112409
:101990008DCF6F927F928F929F92AF92BF92CF9294
:1019A000DF92EF92FF920F931F93CF93DF93EC019F
:1019B0006B015A0139014801E881F9810284F385FC
:1019C000E02D0995E881F9810288F389E02D8701EE
:1019D0009301A501B601CE010995A501480D591D38
:1019E00041505109E881F9810288F389E02D930182
:1019F000B601CE010995E881F9810088F189E02DD1
:101A00009401A501B601CE010995C60CD71CB601FB
:101A100061507109E881F9810088F189E02D940114
:101A2000A501CE010995E881F9810688F789E02DA5
:101A3000CE01DF91CF911F910F91FF90EF90DF903A
:101A4000CF90BF90AF909F908F907F906F900994B0
:101A50006F927F928F929F92AF92BF92CF92DF92BE
:101A6000EF92FF920F931F93CF93DF935C01EB01F3
:101A70006A01490138018701DC01ED91FC9162178F
:101A8000730719F5641675062CF0962D872D3A010B
:101A9000C92ED82E9601261937092F5F3F4F048C87
:101AA000F58DE02DA301BE01C5010995DF91CF9110
:101AB0001F910F91FF90EF90DF90CF90BF90AF906C
:101AC0009F908F907F906F9008954615570591F4E1
:101AD0002617370724F0892D4B01C22FD82F9E01DE
:101AE000281939092F5F3F4F068CF78DE02DA6018D
:101AF000B401DACF0284F385E02D0995D501ED918B
:101B0000FC910488F589E02D83019401A601BE01B2
:101B1000C5010995D501ED91FC910688F789E02D65
:101B2000C501DF91CF911F910F91FF90EF90DF9052
:101B3000CF90BF90AF909F908F907F906F900994BF
:101B4000EF92FF920F931F93DC011A960D911C9157
:101B50001B9718962D913C911997ED91FC9100A03F
:101B6000F1A1E02D7B0150E040E070E060E00995DC
:101B70001F910F91FF90EF9008954F925F926F9297
:101B80007F928F929F92AF92BF92CF92DF92EF920D
:101B9000FF920F931F93CF93DF936C012B015A0198
:101BA00039014801DC01ED91FC910284F385E02DBF
:101BB0000995E201640C751CD601ED91FC91C615E6
:101BC000D7055CF40088F189E02D87019401A50117
:101BD000BE01C60109952196EFCF0688F789E02D51
:101BE000C601DF91CF911F910F91FF90EF90DF9091
:101BF000CF90BF90AF909F908F907F906F905F90AD
:101C00004F9009948F929F92AF92BF92CF92DF92A2
:101C1000EF92FF920F931F93CF93DF93EC015B0141
:101C20004A016901E881F9810284F385E02D099573
:101C300095012C0D3D1D21503109E881F981048861
:101C4000F589E02D78018401A401B501CE01099543
:101C5000E881F9810688F789E02DCE01DF91CF91E7
:101C60001F910F91FF90EF90DF90CF90BF90AF90BA
:101C70009F908F9009948F929F92AF92BF92CF9234
:101C8000DF92EF92FF920F931F93CF93DF93EC01BC
:101C90005B014A0169017801E881F9810284F385D9
:101CA000E02D0995C80CD91C860101501109E88165
:101CB000F9810488F589E02D9501A401B501CE01D3
:101CC0000995E881F9810688F789E02DCE01DF9139
:101CD000CF911F910F91FF90EF90DF90CF90BF9029
:101CE000AF909F908F900994EF92FF920F931F9364
:101CF000DC01ED91FC9100A0F1A1E02D09951F916F
:101D00000F91FF90EF9008950F931F93DC01ED91D9
:101D1000FC91068CF78DE02D09951F910F91089588
:101D20000F931F93DC01ED91FC91048CF58DE02D58
:101D300009951F910F910895DC01ED91FC910084AC
:101D4000F185E02D09943F924F925F926F927F92BE
:101D50008F929F92AF92BF92CF92DF92EF92FF92BB
:101D60000F931F93CF93DF935C017B014A016901BD
:101D7000390187E0680E711C93E0759467949A9519
:101D8000E1F72B01400E511E10E000E0312CD0E0B5
:101D9000C0E0CE0187709927330C892B59F4FE01DE
:101DA00083E0F595E7958A95E1F7E00FF11FE80DDF
:101DB000F91D349037FE0AC021E030E0A701B501DB
:101DC0006C0F7D1F82E693E00E949C0E2196CC163C
:101DD000DD06F9F68FEFE81AF80A060D171DE41470
:101DE000F504A9F6DF91CF911F910F91FF90EF902D
:101DF000DF90CF90BF90AF909F908F907F906F902B
:101E00005F904F903F9008952F923F924F925F9234
:101E10006F927F928F929F92AF92BF92CF92DF92FA
:101E2000EF92FF920F931F93CF93DF9300D000D0D8
:101E300000D0CDB7DEB73C016A013E832D83FC8222
:101E4000EB825801A41AB50AB7FE03C0B194A1945D
:101E5000B1088D809E80861A970A97FE03C09194E0
:101E6000819491088A149B045CF0902F812F0D813E
:101E70001E819D838E839C2D8D2D6B01692F782F64
:101E80000C151D055CF09D818E817E836D83692F0D
:101E9000782F902F812F8601C92ED82E1601201A57
:101EA000310A2B012D813E81421A530A57FE03C08D
:101EB000519441945108710137FE03C03FEFE31A7A
:101EC000F30AF594E7948D819E81861797075CF558
:101ED000A1E0B0E0BA83A983C016D1064CF1D301CA
:101EE000ED91FC910484F585E02D2B813C81A801C6
:101EF0006D817E818A149B041CF04D815E81B80146
:101F0000C3010995E418F508F7FE0AC02D813E814A
:101F100089819A81280F391F3E832D83E20CF31C9F
:101F20000F5F1F4FD9CF2FEF3FEF3A832983D4CFD5
:101F300026960FB6F894DEBF0FBECDBFDF91CF91CE
:101F40001F910F91FF90EF90DF90CF90BF90AF90D7
:101F50009F908F907F906F905F904F903F902F90C9
:101F60000895089520917802260F3327331F2132D8
:101F70003105ECF420919C02FC0190E080E02430DB
:101F800069F082E00895A09178022191AC01485A4D
:101F90005D4FA40FB52FB11D2C930196861798F3B2
:101FA00080917802680F6093780280E0089581E064
:101FB000089510929C0281E080939E0210929D02EF
:101FC00061E082E10E94E60561E083E10E94E605AE
:101FD000E9EBF0E080818E7F808380818D7F80833C
:101FE00088E48093B80085E48093BC000895CF9383
:101FF000DF9391E0909357028823B9F0C091B80025
:10200000D091BA008091BC008A7B8093BC0060E0D4
:1020100082E10E94E60560E083E10E94E6050E94FD
:10202000D90FD093BA00C093B800DF91CF91089533
:10203000E091C8028091C702E81730F4F0E0EE5C4E
:10204000FD4F808190E008958FEF9FEF089590916C
:10205000C8028091C7022FEF3FEF981748F4E92F8D
:10206000F0E0EE5CFD4F208130E09F5F9093C8026E
:10207000C90108958091C7029091C802891B990BEC
:102080000895CF92DF92EF92FF920F931F93CF9319
:10209000DF937C01CB018A012091DA02222389F0AF
:1020A000EB016B01C40ED51ECC15DD0569F06991FD
:1020B000D701ED91FC910190F081E02DC7010995C8
:1020C000F3CF642F0E94B20FC801DF91CF911F910F
:1020D0000F91FF90EF90DF90CF900895CF93DF9313
:1020E0001F92CDB7DEB769832091DA022223F9F07F
:1020F0002091D702203258F021E030E0FC013383F8
:10210000228390E080E00F90DF91CF91089580913D
:10211000D802E82FF0E0EE5EFD4F998190838F5F4B
:102120008093D8028093D70281E090E0ECCF61E009
:10213000CE0101960E94B20FF7CFCF92DF92EF92BD
:10214000FF920F931F93CF93DF93D091D70281E03B
:10215000D13208F09CC0C091D9020E9462066B0186
:102160007C0180919C0281116CC082E080939C0272
:1021700081E080939E028FEF80939B021092C002B9
:10218000D093BF02A2E1B2E0EFE9F2E080E0D81321
:102190008DC01092C1028091C102CC0FC82BC09398
:1021A000C10280919D02813009F084C010929D028D
:1021B0000E9462066B017C018091C1028093BB008A
:1021C0008091530290915402A0915502B091560211
:1021D000892B8A2B8B2BA1F00E946206009153025F
:1021E0001091540220915502309156026C197D09CC
:1021F0008E099F09061717072807390708F442C0F8
:102200008091BC0083FDD8CF85EC8093BC000E94F8
:1022100062066B017C0180919C02823009F44CC003
:1022200080919B028F3F09F469C080919B028032AC
:1022300009F466C080919B02803309F463C084E096
:1022400026C08091530290915402A0915502B09102
:102250005602892B8A2B8B2B09F483CF0E946206AE
:102260000091530210915402209155023091560270
:102270006C197D098E099F0906171707280739076A
:1022800008F06FCF809152020E94F70F85E0109204
:10229000D8021092D7021092DA02DF91CF911F91EB
:1022A0000F91FF90EF90DF90CF9008959D919193C3
:1022B0008F5F6DCF85EEA9CF80915302909154022C
:1022C000A0915502B0915602892B8A2B8B2B09F4D1
:1022D000A2CF0E94620600915302109154022091F5
:1022E0005502309156026C197D098E099F09061717
:1022F00017072807390708F08ECFC4CF80E0C7CF73
:1023000082E0C5CF83E0C3CFEF92FF920F931F937C
:10231000CF93DF937C01C62F80917F039091800340
:10232000009709F459C02091830331E03093DA0219
:102330002093D9021092D8021092D702DC01ED91BD
:10234000FC910190F081E02D60E009958701EE2479
:10235000E394F12CD1E0C15080917F0390918003F0
:10236000CF3F91F1B0E2EB16F104D8F00E949D103E
:1023700080917F039091800320918303D093DA02B0
:102380002093D9021092D8021092D702DC01ED916D
:10239000FC910190F081E02D60E00995EE24E3943A
:1023A000F12C80917F0390918003F8016491DC010E
:1023B000ED91FC910190F081E02D0995BFEFEB1AB2
:1023C000FB0A0F5F1F4FC7CFDF91CF911F910F9176
:1023D000FF90EF900C949D10E0918F03F09190038B
:1023E0009081809195038095892380838701C150D6
:1023F00008F438C0F801849120917D0330917E0368
:10240000232B29F00E94B2090F5F1F4FF0CF28E065
:1024100030E040E8E0918B03F0918C0390919303BE
:10242000582F5423D9F05081952B9083E0918D0340
:10243000F0918E03908150919403952B9083E091BD
:102440008D03F0918E035081909194039095952384
:102450009083469521503109E9F6D6CF5081909569
:102460009523E3CFDF91CF911F910F91FF90EF90D4
:1024700008951F93CF93DF93EC018D8D9E8D009770
:1024800021F1162F29A131E03093DA022093D902ED
:102490001092D8021092D702DC01ED91FC910190CC
:1024A000F081E02D60E009958D8D9E8DDC01ED9130
:1024B000FC910190F081E02D612F09958D8D9E8D0D
:1024C000DF91CF911F910C949D10ADA5BEA59C915D
:1024D0008BA9809589238C938B8D9C8D892B31F0D2
:1024E000862FDF91CF911F910C94B20928E030E044
:1024F00080E8A9A5BAA599A9462F4823C1F04C9117
:10250000942B9C93ABA5BCA59C914AA9942B9C931E
:10251000ABA5BCA54C919AA9909594239C938695C4
:102520002150310931F7DF91CF911F9108954C91DE
:1025300090959423E6CFDF92EF92FF920F931F9333
:10254000CF93DF9380917F0390918003892B09F4CF
:10255000A5C0209197033091980340919903509121
:102560009A0360E074E284EF90E00E949F20205183
:10257000310941095109569547953795279520937B
:10258000B80064E084E89AE00E94841180916603B8
:10259000909167038034910509F097C060E282E66C
:1025A00093E00E94391260916603615E82E693E0D7
:1025B0000E9439122091680330916903C90107967E
:1025C00097FD079633E0959587953A95E1F7209129
:1025D000660330916703829F8001839F100D929F55
:1025E000100D1124C0918103D091820380917F034B
:1025F000909180030C0F1D1F009709F498C0209143
:10260000830331E03093DA022093D9021092D8028A
:102610001092D702DC01ED91FC910190F081E02D48
:1026200060E40995EE24E394F12CDD24D3948091A9
:102630007F03909180030C171D0709F44FC0B0E28F
:10264000EB16F104D8F00E949D1080917F039091C9
:10265000800320918303D092DA022093D902109252
:10266000D8021092D702DC01ED91FC910190F0812B
:10267000E02D60E40995EE24E394F12C80917F0332
:10268000909180036991DC01ED91FC910190F081C2
:10269000E02D0995BFEFEB1AFB0AC9CF80917D03AE
:1026A00090917E03892B31F08091A0039091A1033A
:1026B0000E94B909E0919103F09192039081809179
:1026C00096038095892380835CCF60E082E693E067
:1026D0000E94391260916603615068CF0E949D107C
:1026E00080917F0390918003892B09F461C0209130
:1026F0009B0330919C0340919D0350919E0360E0A9
:1027000074E284EF90E00E949F202051310941093A
:10271000510956954795379527952093B800DF9135
:10272000CF911F910F91FF90EF90DF900895E0916E
:102730008F03F0919003808190919503892B808382
:102740000C171D0769F2899120917D0330917E035A
:10275000232B19F00E94B209F3CF28E030E040E8C3
:10276000E0918B03F0918C0390919303582F5423A5
:10277000D9F05081952B9083E0918D03F0918E03D9
:10278000908150919403952B9083E0918D03F0916B
:102790008E03508190919403909595239083469554
:1027A00021503109E9F6CCCF508190959523E3CFA4
:1027B000E0919103F0919203808190919603892B8F
:1027C0008083ADCF1F93CF93DF93EC01162F8D8DB8
:1027D0009E8D892BB1F12DA93EA94FA958AD60E07E
:1027E00074E284EF90E00E949F202051310941095A
:1027F000510956954795379527952093B80066EA75
:10280000111167EACE010E9439128D8D9E8D892BA0
:1028100041F129AD3AAD4BAD5CAD60E074E284EFBF
:1028200090E00E949F20205131094109510956959D
:102830004795379527952093B800DF91CF911F9149
:1028400008958B8D9C8D892B21F08EAD9FAD0E94BC
:10285000B909EFA5F8A990818CA980958923808377
:10286000CECFEFA5F8A980819CA9892B8083E5CFE5
:1028700090E080E0089561E08BE00E94E60560E072
:102880008CE00C94E60561E089E00E94E60560E0DA
:102890008AE00C94E605FC0101900020E9F73197ED
:1028A000AF01481B590BBC0182E693E00C942E0744
:1028B000CF93DF93FC01448155816081718182E671
:1028C00093E00E942E07EC0181E691E00E944B14F8
:1028D0008C0F9D1FDF91CF9108958F929F92AF92A1
:1028E000BF920F931F93CF93DF93CDB7DEB7A1971E
:1028F0000FB6F894DEBF0FBECDBF19A2423008F468
:102900004AE08E010F5D1F4F842E912CB12CA12C1B
:10291000A50194010E949F20E62FB901CA01EA3067
:10292000F4F4E05DD801EE938D01232B242B252BAD
:1029300079F790E080E0109719F0CD010E944B14D8
:10294000A1960FB6F894DEBF0FBECDBFDF91CF9139
:102950001F910F91BF90AF909F908F900895E95C69
:10296000E1CFCF93DF930E944B14EC0181E691E01D
:102970000E944B148C0F9D1FDF91CF9108952091E1
:10298000680330916903C901079697FD079623E014
:10299000959587952A95E1F7209166033091670315
:1029A000829FA001839F500D929F500D112470E0D3
:1029B00060E080918103909182030C94B722CF93C1
:1029C000DF93EC010E94BF14E2E6F3E01586148663
:1029D00084E190E09787868782E0848B858BCE01A7
:1029E0000E9458140E949B126CED75E080E090E00C
:1029F000DF91CF910C948706FC0180819181009733
:102A000011F00C94632108950E94A9220F931F9343
:102A1000CF93DF93EC0188819981009759F02A8147
:102A20003B812617370730F081E0DF91CF911F916E
:102A30000F9108958B016F5F7F4F0E94EC210097EB
:102A400059F0998388831B830A832C813D81232B32
:102A500059F7FC011082E8CF80E0E7CFEF92FF92B8
:102A60000F931F93CF93DF93EC017B018A01BA018F
:102A70000E94061528813981811114C02115310564
:102A800019F0C9010E946321198218821D821C82DB
:102A90001B821A82CE01DF91CF911F910F91FF907F
:102AA000EF9008951D830C83B701C9010E94C722CE
:102AB000F1CFFC01118210821382128215821482DE
:102AC000FB0101900020E9F73197AF01461B570B3E
:102AD0000C942E1585ED8093BC008091530290914B
:102AE0005402A0915502B09156020796A11DB11D46
:102AF00023E0B695A795979587952A95D1F72091CC
:102B0000BC0024FD03C010929C0208954091530222
:102B1000509154026091550270915602452B462BFC
:102B2000472B69F30097A105B10541F02AE22A95E8
:102B3000F1F700C00197A109B109E1CF80915202DC
:102B40000C94F70F1F920F920FB60F9211242F9330
:102B50003F938F939F93AF93BF938091CF029091B8
:102B6000D002A091D102B091D2023091CE0223E0E6
:102B7000230F2D3758F50196A11DB11D2093CE02CC
:102B80008093CF029093D002A093D102B093D2024F
:102B90008091D3029091D402A091D502B091D60237
:102BA0000196A11DB11D8093D3029093D402A093EE
:102BB000D502B093D602BF91AF919F918F913F9173
:102BC0002F910F900FBE0F901F90189526E8230F9E
:102BD0000296A11DB11DD2CF1F920F920FB60F9278
:102BE00011242F933F934F935F936F937F938F9312
:102BF0009F93AF93BF93EF93FF938091B900887F2A
:102C0000803609F44AC0F0F5883209F4A7C018F5F7
:102C1000803109F49BC0B8F4882309F4F9C08830E6
:102C200009F494C0FF91EF91BF91AF919F918F9163
:102C30007F916F915F914F913F912F910F900FBEB8
:102C40000F901F901895883109F488C0803251F791
:102C500080939B0214C0803409F49DC040F48033FB
:102C6000B9F38833F9F680939B0285ECB0C08035C8
:102C700009F485C0883509F496C0883499F60E9415
:102C80006A15D0CF883909F48CC038F5883729F017
:102C900050F4883611F0803729F683E080939C0247
:102CA00010929A0257C0883809F47BC0803919F015
:102CB000803809F0B7CF80919A02803208F071C055
:102CC000E0919A0281E08E0F80939A028091BB007E
:102CD000F0E0E658FD4F80833DC0803B39F0E0F4E2
:102CE000803A09F479C0883A09F09CCF84E0809357
:102CF0009C021092790210927802E091C502F09144
:102D0000C60209958091780281110FC081E08093FD
:102D100078021092580209C0803C09F4A6CF883C82
:102D200009F4A3CF883B09F07DCFE091790281E0DF
:102D30008E0F80937902F0E0E85AFD4F80818093F6
:102D4000BB00909179028091780229C08091C102E4
:102D50008093BB0085EC8093BC0064CF9091C0024F
:102D60008091BF02981758F5E091C00281E08E0F64
:102D70008093C002F0E0E156FD4F8081E9CFE09101
:102D8000C00281E08E0F8093C0028091BB00F0E012
:102D9000E156FD4F80839091C0028091BF02981749
:102DA000C8F285E8D8CFE091C00281E08E0F809311
:102DB000C0028091BB00F0E0E156FD4F808380911E
:102DC0009E0281115CCF81E080939D0284EA809312
:102DD000BC0010929C0226CF85EC8093BC00109220
:102DE0009C0280919A02803230F4E0919A02F0E0E5
:102DF000E658FD4F108260919A0270E0E091C302A4
:102E0000F091C4028AE792E0099510929A020ACFE3
:102E100010929B0234CF109259031092580388EEFF
:102E200093E0A0E0B0E080935A0390935B03A093FB
:102E30005C03B0935D038DE191E090935703809321
:102E40005603109265031092640320E830E030933B
:102E500067032093660380E490E090936903809376
:102E6000680330936B0320936A0390936D03809300
:102E70006C031092780310926F0310926E031092FD
:102E800071031092700381E080937703809376033F
:102E90002FEF3FEF30937503209374033093730348
:102EA000209372038093790310927A0310927C032B
:102EB00010927B0389E391E0909363038093620314
:102EC00010927E0310927D0386E593E09093800339
:102ED00080937F0310928203109281038FEF80937F
:102EE000860380938703809388038093890380936C
:102EF0008A0380E89AE1A6E0B0E08093970390937C
:102F00009803A0939903B0939A0380EA96E8A1E00E
:102F1000B0E080939B0390939C03A0939D03B09398
:102F20009E0380E58093A0031092A1031092E90212
:102F30001092ED021092EC021092EE028FE291E0FC
:102F40009093E8028093E702E3E0F3E010821482BA
:102F500013821582369683E0EF33F807B9F783E0E2
:102F600091E090934A038093490380E091E090932D
:102F70004C0380934B0384E080934D0383E0809364
:102F80004E0387E091E090934803809347038AE0E3
:102F900090E09093500380934F0384EF91E09093DF
:102FA00052038093510310925503109254031092D0
:102FB000430310924403109245031092460310926B
:102FC000530364E671E081EE92E00E94591563E6D6
:102FD00071E08BED92E00C945915CF93DF9300D004
:102FE00000D000D0CDB7DEB7789484B5826084BDC0
:102FF00084B5816084BD85B5826085BD85B58160FD
:1030000085BD80916E00816080936E00109281007A
:103010008091810082608093810080918100816035
:1030200080938100809180008160809380008091F6
:10303000B10084608093B1008091B0008160809382
:10304000B00080917A00846080937A0080917A0049
:10305000826080937A0080917A00816080937A0008
:1030600080917A00806880937A001092C10061E0BC
:1030700081E00E94140661E08DE00E94140661E088
:1030800089E00E94140661E08AE00E94140661E073
:103090008BE00E94140661E08CE00E94140660E060
:1030A00080E10E9414068091810390918203892B14
:1030B00011F10E94BF14209168033091690380913F
:1030C000660390916703213231050CF06CC1B901A0
:1030D0006052710977FF02C06F5F7F4F75956795EA
:1030E0008357910997FD019600E210E023E730E055
:1030F0004AE855E06BC12091680330916903C9012A
:10310000079697FD0796B3E095958795BA95E1F7F1
:103110002091660330916703AC01429FC001439F39
:10312000900D529F900D11240E94C720909382030E
:1031300080938103892B09F0BCCF81E090E09093CC
:1031400075038093740390937303809372030E94BA
:10315000BF148AE090E090936F0380936E0384E144
:1031600090E0909371038093700382E080937603E4
:10317000809377038DE891E00E94B1140E949B1226
:103180006CED75E080E090E00E94870636E0232E2B
:10319000332433948EE00E945006BC01990F880BB3
:1031A000990B0E94331E20E030E040EA50E40E9478
:1031B000921E20E030EC4FE754E40E94F41F20E020
:1031C00030E040E05FE30E94871F20E030E048EC01
:1031D00052E40E94921E6B017C018FE00E94500617
:1031E0008C0181E10E9450064C0180E10E94BD05E6
:1031F0005C011A8219821C821B821E821D826091D0
:10320000DB027091DC026115710541F04091DF0233
:103210005091E002CE0101960E942E150E94BF142B
:1032200010926F0310926E0310927103109270034C
:10323000309276033092770387E991E00E94B114CF
:103240008CEA91E00E94B11481EC91E00E944B1451
:10325000A7019601C701B6010E949A20882309F4AC
:10326000A7C288EC91E00E944B1484ED91E00E948B
:10327000B11487ED91E00E944B1489E691E0033C84
:1032800051E0150714F482E791E00E94B1148EED2D
:1032900091E00E944B1489E791E0A114B10411F46C
:1032A00080E891E00E94B11485EE91E00E944B14F9
:1032B00083EC881681E098060CF4F0C286E891E071
:1032C0000E94B1148CEE91E00E944B14CE01019645
:1032D0000E9458140E949B12CE0101960E94FC1479
:1032E00093EC891691E0990664F061E081E00E9418
:1032F000E60561E08DE00E94E6050E9443140E940D
:103300003B14AA94AB28B1F48091CD028111C9C2BB
:1033100061E08DE00E94E60563EF71E0CE01019669
:103320000E945915CE0101960E94DF14CE0101962C
:103330000E94FC14033C114034F061E08DE00E94D7
:10334000E6050E943B14309253030E94B906009197
:103350004303109144032091450330914603AB0190
:10336000BC01401B510B620B730B80914F0390917A
:103370005003B0E0A0E084179507A607B70708F050
:10338000AAC310E080914D03181708F09FC2E09186
:103390004903F0914A03E10FF11D62E080810E9430
:1033A00014061F5FEFCFB9016054710977FF02C0A7
:1033B0006F5F7F4F759567958255910997FD0196CF
:1033C00000E410E022E530E04AE657E09595879565
:1033D0000E94A30E82E08093840380917F039091EA
:1033E0008003892B09F4DFC08CE380938303109260
:1033F000C8021092C7021092D8021092D7020E94FF
:10340000D90F8CE297E09093C6028093C5028DE2BB
:1034100097E09093C4028093C30280918A0387FD52
:103420001EC061E00E94140661E080918A030E9440
:10343000E60561E070E080E090E00E94870660E0D1
:1034400080918A030E94E6056AE070E080E090E0E7
:103450000E94870661E080918A030E94E6058091C0
:103460007F0390918003892B09F45CC1209197031D
:10347000309198034091990350919A0360E074E26F
:1034800084EF90E00E949F202051310941095109A9
:1034900056954795379527952093B80064E086E8C0
:1034A00095E00E94841160916803615082E693E088
:1034B0000E94391264E082E895E00E9484118091B4
:1034C000840360E1813009F064E182E693E00E94C8
:1034D000391264E08EE795E00E9484118FE88093B2
:1034E0009F0380916603909167038038910509F0EE
:1034F00030C180916803909169038034910509F08F
:1035000038C180918403813009F046C18FE98093EE
:103510009F0312E16AED82E693E00E943912612F67
:1035200082E693E00E94391261E882E693E00E940D
:10353000391260919F0382E693E00E94391269ED8F
:1035400082E693E00E9439128091840362E2813026
:1035500009F061EF82E693E00E94391266E088E7A5
:1035600095E00E94841180917F0390918003892BC4
:1035700009F414C120919B0330919C0340919D0359
:1035800050919E0360E074E284EF90E00E949F20DF
:10359000205131094109510956954795379527958D
:1035A0002093B800CACD61E0809188030E94140680
:1035B00061E0809189030E94140680918803082E9F
:1035C000000C990BFC01E85BF54FE491F0E0EE0F85
:1035D000FF1FEC5CF54F25913491309390032093BD
:1035E0008F03FC01E45AF54FE491E0939503809139
:1035F0008903082E000C990BFC01E85BF54FE49160
:10360000F0E0EE0FFF1FEC5CF54FA591B491B09385
:103610009203A0939103FC01E45AF54FE491E093E7
:1036200096038C91E82BEC9380917D0390917E031F
:10363000892B09F434C01FB7F8948091C20281111C
:1036400027C0E2E5FAE08491E6E6FAE09491E82FFB
:10365000F0E0EE0FFF1FE65DF54FA591B491EC9100
:10366000E92321F461E08AE00E94E60561E08AE056
:103670000E9414068CB580618CBD8CB580648CBDB5
:1036800061E08DE00E94140661E08BE00E94140668
:103690008091C2028F5F8093C2021FBFBECE61E0E5
:1036A000809186030E94140661E0809187030E9446
:1036B000140680918603082E000C990BFC01E85B30
:1036C000F54FE491F0E0EE0FFF1FEC5CF54F259114
:1036D000349130938C0320938B03FC01E45AF54F13
:1036E000E491E093930380918703082E000C990BDB
:1036F000FC01E85BF54FE491F0E0EE0FFF1FEC5C9E
:10370000F54FA591B491B0938E03A0938D03FC0166
:10371000E45AF54FE491E09394038C91E095E8230B
:10372000EC937BCE80917D0390917E03892B31F0C9
:103730008091A0039091A1030E94B909E0919103A7
:10374000F0919203908180919603809589238083E4
:10375000A5CE8036910589F4809168039091690324
:10376000409739F480918403813029F480E180937B
:103770009F0312E0CFCE8FEAFACF80349105C9F7CC
:103780008091680390916903809799F780918403F1
:10379000813011F480E1BBCE8FECB9CEE091910382
:1037A000F0919203808190919603892B8083C5CC00
:1037B00026013701E89477F82FEF3FEF4FE75FE7F7
:1037C000C301B2010E949A2081110DC02FEF3FEF7B
:1037D0004FE75FE7C301B2010E942C1E18161CF4CC
:1037E0008CEC91E040CD2FEF3FEF4FE75FE4C70156
:1037F000B6010E94952018161CF480ED91E033CD9F
:103800002FEF3FEF4FE75FECC701B6010E942C1E80
:1038100087FDF3CF20E030E0A901C701B6010E9487
:103820002C1E87FF09C06DE282E693E00E94F70B31
:10383000F7FAF094F7F8F0942DEC3CEC4CE45DE3EF
:10384000C701B6010E94881F2B013C010E9466201F
:103850006B017C010E94311E9B01AC01C301B201CE
:103860000E94871F2B013C014AE0C701B6010E945C
:103870006D146EE282E693E00E94F70B20E030E0E8
:1038800040E251E4C301B2010E94921E0E946620F0
:1038900090E080E04AE00E946D14E7CC8AE891E075
:1038A0000FCD0E94B906C090C902D090CA02E09024
:1038B000CB02F090CC026C197D098E099F09613111
:1038C00077428105910508F023CD34CD912C80916C
:1038D0004E03981608F063C0E92CF12CE0914B03DD
:1038E000F0914C03EE0DFF1D61E080810E941406F3
:1038F000E0914B03F0914C03EE0DFF1D60E08081E1
:103900000E94E60581E090E0A0E0B0E0092C04C050
:10391000880F991FAA1FBB1F0A94D2F75C016C0184
:10392000C094D094812C80914D03881608F5082D01
:1039300010E0E0914903F0914A03E00FF11F80810C
:103940000E94BD050C5F1F4F000F111FF801E951C8
:10395000FD4F892B41F4808191818A299B29918394
:1039600080838394E0CF808191818C219D21F7CF4A
:10397000E0914B03F0914C03EE0DFF1D61E080815F
:103980000E94E60580914B0390914C03E80EF91ECE
:1039900060E0F70180810E941406939498CF97EE1F
:1039A000E92E92E0F92E83E293E08701F801278D5A
:1039B00030A1232B31F4148E2FEF3FEF368F258F5C
:1039C00011A20A5F1F4F8017910781F7B12C8091D8
:1039D0004D03B81608F052C0A12CCB2CD12CCC0C26
:1039E000DD1CA60141515D4F6A0120914E03A216D4
:1039F00008F042C0F601608171810A2C02C0769500
:103A000067950A94E2F7B29E900111242A0D311DA8
:103A1000E7EEF2E080E0458D568D2417350709F476
:103A2000BEC08F5F36968A30B1F760FF23C0E7EEE5
:103A3000F2E090E080E0448D411117C0E09147032F
:103A4000F0914803E20FF31F4081289EF001299E68
:103A5000F00D1124E951FD4F448F368F258F10A2B0
:103A6000178E61E00E94C50605C0019636968A3021
:103A7000910509F7A394B9CFB394A9CFD12CF7013D
:103A800081A18111D82EF6E0EF0EF11CE016F106AF
:103A9000B1F70E94B9066093430370934403809387
:103AA000450390934603DD20B1F0809108038823FD
:103AB00091F08091060390910703019761F4809142
:103AC000030381110BC080E090E0892B09F462CBE5
:103AD0000E9400005DCB10925303F5CF8A3241F56E
:103AE00050E040E063E671E08BED92E00E942E151D
:103AF0002091DF023091E0028091E5029091E60290
:103B00002817390701F78091DB029091DC02609160
:103B1000E1027091E202009709F443C0611571055A
:103B200051F5232B09F44AC0FC01808190E044C088
:103B300089831A820091DF021091E0020F5F1F4F0C
:103B4000B8018BED92E00E940615882389F220913E
:103B5000DB023091DC028091DF029091E002BE0135
:103B60006F5F7F4F820F931F0E94C7221093E00266
:103B70000093DF02BDCF0E94BE221EC067E072E04C
:103B8000CE0101960E945915CE0101960E94DF14C4
:103B9000CE0101960E94FC1461E08DE03BC0617093
:103BA00061CF6115710551F0232B41F0FB0180813C
:103BB00090E0919581959109892B01F76CEF71E067
:103BC000CE0101960E945915CE0101960E94DF1484
:103BD000CE0101960E94FC143092CD020E94B906DB
:103BE0006093C9027093CA028093CB029093CC0277
:103BF00060E08DE00E94E6050E94431464EF71E0EE
:103C000080E090E00E94870660E089E00E94E6057F
:103C100061E08AE00E94E60550E040E063E671E082
:103C20008BED92E00E942E154ECF8BED92E00E941C
:103C3000FC1481EE92E00E94FC1489E391E09093E1
:103C400063038093620380918103909182030097C4
:103C500011F00C94632108950E946E1E08F481E017
:103C60000895E89409C097FB3EF49095809570956F
:103C700061957F4F8F4F9F4F9923A9F0F92F96E9B8
:103C8000BB279395F695879577956795B795F1112D
:103C9000F8CFFAF4BB0F11F460FF1BC06F5F7F4FCA
:103CA0008F4F9F4F16C0882311F096E911C07723DC
:103CB00021F09EE8872F762F05C0662371F096E8E5
:103CC000862F70E060E02AF09A95660F771F881FB4
:103CD000DAF7880F9695879597F90895990F000858
:103CE000550FAA0BE0E8FEEF16161706E807F907CE
:103CF000C0F012161306E407F50798F0621B730B69
:103D0000840B950B39F40A2661F0232B242B252BE9
:103D100021F408950A2609F4A140A6958FEF811D8C
:103D2000811D08950E94A51E0C94161F0E94081F55
:103D300038F00E940F1F20F0952311F00C94FF1E05
:103D40000C94051F11240C944A1F0E94271F70F326
:103D5000959FC1F3950F50E0551F629FF001729F30
:103D6000BB27F00DB11D639FAA27F00DB11DAA1F3F
:103D7000649F6627B00DA11D661F829F2227B00D8C
:103D8000A11D621F739FB00DA11D621F839FA00D17
:103D9000611D221F749F3327A00D611D231F849F67
:103DA000600D211D822F762F6A2F11249F575040BE
:103DB0009AF0F1F088234AF0EE0FFF1FBB1F661F39
:103DC000771F881F91505040A9F79E3F510580F002
:103DD0000C94FF1E0C944A1F5F3FE4F3983ED4F30B
:103DE000869577956795B795F795E7959F5FC1F7A6
:103DF000FE2B880F911D9695879597F9089597F951
:103E00009F6780E870E060E008959FEF80EC089580
:103E100000240A94161617061806090608950024A9
:103E20000A9412161306140605060895092E039423
:103E3000000C11F4882352F0BB0F40F4BF2B11F497
:103E400060FF04C06F5F7F4F8F4F9F4F089557FDF6
:103E50009058440F551F59F05F3F71F04795880FF8
:103E600097FB991F61F09F3F79F08795089512168F
:103E700013061406551FF2CF4695F1DF08C016163B
:103E800017061806991FF1CF8695710561050894EC
:103E90000895E894BB2766277727CB0197F9089503
:103EA0002F923F924F925F926F927F928F929F924A
:103EB000AF92BF92CF92DF92EF92FF920F931F9338
:103EC000CF93DF93CDB7DEB7CA1BDB0B0FB6F894E9
:103ED000DEBF0FBECDBF09942A88398848885F8429
:103EE0006E847D848C849B84AA84B984C884DF809A
:103EF000EE80FD800C811B81AA81B981CE0FD11D7E
:103F00000FB6F894DEBF0FBECDBFED010895505837
:103F1000BB27AA270E949F1F0C94161F0E94081FF0
:103F200038F00E940F1F20F039F49F3F19F426F457
:103F30000C94051F0EF4E095E7FB0C94FF1EE92F8F
:103F40000E94271F58F3BA17620773078407950763
:103F500020F079F4A6F50C94491F0EF4E0950B2E91
:103F6000BA2FA02D0B01B90190010C01CA01A001CB
:103F70001124FF27591B99F0593F50F4503E68F126
:103F80001A16F040A22F232F342F4427585FF3CF67
:103F9000469537952795A795F0405395C9F77EF438
:103FA0001F16BA0B620B730B840BBAF09150A1F081
:103FB000FF0FBB1F661F771F881FC2F70EC0BA0F07
:103FC000621F731F841F48F4879577956795B7958F
:103FD000F7959E3F08F0B0CF9395880F08F099278A
:103FE000EE0F9795879508950E9408200C94161F50
:103FF0000E940F1F58F00E94081F40F029F45F3FF5
:1040000029F00C94FF1E51110C944A1F0C94051FAB
:104010000E94271F68F39923B1F3552391F3951B51
:10402000550BBB27AA2762177307840738F09F5FD9
:104030005F4F220F331F441FAA1FA9F335D00E2E46
:104040003AF0E0E832D091505040E695001CCAF7B3
:104050002BD0FE2F29D0660F771F881FBB1F261776
:1040600037074807AB07B0E809F0BB0B802DBF014D
:10407000FF2793585F4F3AF09E3F510578F00C941C
:10408000FF1E0C944A1F5F3FE4F3983ED4F38695DD
:1040900077956795B795F7959F5FC9F7880F911D3D
:1040A0009695879597F90895E1E0660F771F881F29
:1040B000BB1F621773078407BA0720F0621B730BDC
:1040C000840BBA0BEE1F88F7E09508950E942F1F0E
:1040D00088F09F5798F0B92F9927B751B0F0E1F0C9
:1040E000660F771F881F991F1AF0BA95C9F714C079
:1040F000B13091F00E94491FB1E008950C94491F1E
:10410000672F782F8827B85F39F0B93FCCF38695B1
:1041100077956795B395D9F73EF49095809570950E
:1041200061957F4F8F4F9F4F08950E946E1E08F438
:104130008FEF08950E946E1E880B990B0895A1E2DF
:104140001A2EAA1BBB1BFD010DC0AA1FBB1FEE1F11
:10415000FF1FA217B307E407F50720F0A21BB30B5C
:10416000E40BF50B661F771F881F991F1A9469F7D8
:1041700060957095809590959B01AC01BD01CF0134
:104180000895EE0FFF1F0590F491E02D09940F9311
:104190001F93CF93DF938230910510F482E090E07B
:1041A000E091A403F091A50330E020E0B0E0A0E0AE
:1041B000309799F42115310509F44AC0281B390BB1
:1041C00024303105D8F58A819B816115710589F10B
:1041D000FB0193838283FE0111C0408151810281E2
:1041E000138148175907E0F04817590799F41097B9
:1041F00061F012960C93129713961C933296CF018E
:10420000DF91CF911F910F9108950093A403109314
:10421000A503F4CF2115310551F04217530738F0AB
:10422000A901DB019A01BD01DF01F801C1CFEF0156
:10423000F9CF9093A5038093A403CDCFFE01E20FA5
:10424000F31F819391932250310939832883D7CF6B
:104250002091A2033091A303232B41F42091150157
:10426000309116013093A3032093A20320911301F0
:10427000309114012115310541F42DB73EB740911D
:10428000170150911801241B350BE091A203F09106
:10429000A303E217F307A0F42E1B3F0B28173907DF
:1042A00078F0AC014E5F5F4F2417350748F04E0F92
:1042B0005F1F5093A3034093A203819391939FCFD9
:1042C000F0E0E0E09CCFCF93DF930097E9F0FC01B2
:1042D000329713821282A091A403B091A503ED013D
:1042E00030E020E01097A1F420813181820F931FEC
:1042F0002091A2033091A3032817390709F061C068
:10430000F093A303E093A203DF91CF910895EA0114
:10431000CE17DF07E8F54A815B819E014115510503
:10432000B1F7E901FB83EA8349915991C40FD51F85
:10433000EC17FD0761F4808191810296840F951F2F
:10434000E90199838883828193819B838A83F0E04A
:10435000E0E012968D919C9113970097B9F52D91FD
:104360003C911197CD010296820F931F2091A203D9
:104370003091A3032817390739F6309751F5109279
:10438000A5031092A403B093A303A093A203BCCFF0
:10439000D383C28340815181840F951FC817D907E9
:1043A00061F44E5F5F4F88819981480F591F518397
:1043B00040838A819B81938382832115310509F093
:1043C000B0CFF093A503E093A4039ECFFD01DC01E1
:1043D000C0CF13821282D7CFB0E0A0E0E2EFF1E2CB
:1043E0000C94521F8C01009751F4CB010E94C720FE
:1043F0008C01C801CDB7DEB7E0E10C946E1FFC0163
:10440000E60FF71F9C0122503109E217F30708F469
:104410009DC0D901CD91DC911197C617D70798F0AF
:10442000C530D10530F3CE0104978617970708F3FE
:10443000C61BD70B2297C193D1936D937C93CF0169
:104440000E946321D6CF5B01AC1ABD0A4C018C0ED1
:104450009D1EA091A403B091A503512C412CF12CD9
:10446000E12C109731F58091A2039091A303881558
:10447000990509F05CC04616570608F058C08091AF
:10448000130190911401009741F48DB79EB74091AC
:10449000170150911801841B950BE817F90708F0D4
:1044A00055C0F093A303E093A203F90171836083E5
:1044B000A0CF8D919C91119712966C9012971396A4
:1044C0007C901397A815B90559F56C0142E0C40E0C
:1044D000D11CCA14DB0420F1AC014A195B09DA01D2
:1044E0001296159780F06282738251834083D901BE
:1044F0006D937C93E114F10471F0D7011396FC9352
:10450000EE93129776CF22968C0F9D1FF90191831F
:104510008083F301EFCFF093A503E093A40369CF69
:104520004816590608F42C017D01D3019ACFCB011E
:104530000E94C7207C01009749F0AE01B8010E949B
:10454000AE22C8010E946321870153CF10E000E032
:1045500050CF81E090E0F8940C94CE22FB01DC0176
:1045600002C001900D9241505040D8F70895DC01EF
:1045700001C06D9341505040E0F70895FB01DC010C
:104580008D91019080190110D9F3990B0895FB01C9
:10459000DC0101900D920020E1F7089515E0C5E4DB
:1045A000D5E004C0FE010E94C1202196C634D10787
:0645B000C9F7F894FFCFEB
:1045B60004030205060708313233343536373839F5
:1045C6002A30230000A6038000000000006E104180
:1045D60010381470053A102710181000000000213A
:1045E600072507290700000000F70B2E073814B12E
:1045F6000F020970059C0E740E900E840E040F7047
:1046060005BD09E2137208BB08BD0DA00D280DC932
:104616000C0D0A003132333400476173204C65615A
:104626006B004E6F20476173004D6F74696F6E00AB
:10463600436C65617200594553004E4F0053595300
:1046460054454D204F4E00484F4D45205345435548
:10465600524954592053595354454D002D2D2D2D53
:104666002D2D2D2D2D2D2D2D2D2D2D2D2D2D2D2D74
:104676000054454D503A20006E616E00696E66002A
:104686006F766600204300474153203A2000504988
:1046960052203A2000464952453A20004B455920BF
:1046A6003A2000414C45525421212100415554489D
:1046B6004F52495A45440057524F4E472050494E93
:0246C6000000F2
:00000001FF
